:020000040800F2
:100000007807002055020008973200081D320008CA
:100010009532000895240008B9350008000000005A
:100020000000000000000000000000009B320008FB
:100030009724000800000000993200089D32000853
:100040006F0200086F0200086F0200086F020008CC
:100050006F0200086F0200086F0200086F020008BC
:100060006F0200086F0200086F0200086F020008AC
:100070006F0200086F0200086F0200086F0200089C
:100080006F0200086F0200086F0200086F0200088C
:100090006F0200086F0200086F0200086F0200087C
:1000A0006F0200086F0200086F0200086F0200086C
:1000B0006F0200086F0200086F0200086F0200085C
:1000C0006F0200086F0200086F0200086F0200084C
:1000D0006F020008AD3500086F0200086F020008CB
:1000E0006F0200086F0200086F0200086F0200082C
:1000F0006F0200086F0200086F0200086F0200081C
:100100006F0200086F0200086F0200086F0200080B
:100110006F0200086F0200086F0200086F020008FB
:100120006F0200086F0200086F0200086F020008EB
:100130006F02000800000000000000006F020008CD
:100140006F0200086F0200086F0200086F020008CB
:100150006F0200086F0200086F0200086F020008BB
:100160006F0200086F0200086F0200086F020008AB
:100170006F0200086F02000800000000000000008D
:100180006F0200086F02000800F002F800F053F858
:100190000AA090E8000C82448344AAF10107DA45E2
:1001A00001D100F048F8AFF2090EBAE80F0013F0E1
:1001B000010F18BFFB1A43F001031847F05100006C
:1001C00010520000103A24BF78C878C1FAD85207FC
:1001D00024BF30C830C144BF04680C6070470000C1
:1001E0000023002400250026103A28BF78C1FBD840
:1001F000520728BF30C148BF0B607047662904F022
:100200006F87002070471FB504F05DFF9DE8030075
:1002100000F0B6FA00F0EAFD04000020002104F02E
:100220007DF9401C60600020002104F061F9E0606D
:100230001FBD10B510BD00F06FFF1146FFF7E3FFC3
:1002400004F040F801F018FA03B4FFF7F2FF03BC22
:1002500001F088FA0948804709480047FEE7FEE7B1
:10026000FEE7FEE7FEE7FEE7FEE7FEE7FEE7FEE766
:1002700004480549054A064B70470000353300081D
:100280008901000878010020780700207803002009
:100290007803002070B5064600F052FA056806F1B2
:1002A0000B0020F00704B4429CBF002070BD2B4619
:1002B0006A68BAB11068A04210D304F108018842FC
:1002C0003CBF5068586007D35168101941601168ED
:1002D000091B016058601460101D70BD1346526800
:1002E000002AE7D12146284600F036FA0028DED160
:1002F00070BD70B50446051F00F022FA0068002C9E
:1003000014BF446870BD002C18BFAC423CBF2046EF
:100310006468F8D301680A18AA4218BF456003D17F
:100320002A6805461144016028684119A1421CBF92
:100330006C6070BD6168696021680844286070BDA8
:1003400053EA020C00F069802DE9F04B4FF00006F3
:10035000002B1FBFB3FA83F503FA05F424FA05F660
:100360005E4012BF1643B2FA82F502FA05F4C5F1F7
:1003700020051EBF22FA05FC44EA0C04203556EA8B
:10038000044C4FEA144418BF641C4FF000084FF0AF
:100390000009904271EB030C39D3002919BFB1FA5F
:1003A00081F701FA07F6B0FA80F700FA07F6C7F10D
:1003B00020071EBF20FA07FC46EA0C062037B6FBD2
:1003C000F4FCA7EB0507103F07F01F0BCBF120064D
:1003D0000CFA0BFB2CFA06F644BFB3460026202F7E
:1003E000A4BF5E464FF0000B5BEA060C08BF4FF05F
:1003F000010B19EB0B09ABFB027C48EB0608C01B99
:1004000006FB02CC0BFB03CC71EB0C01C1E70B46E6
:10041000024641464846BDE8F08B13B54FF0000058
:100420004FF00001AFF30080BDE81C4070470000B2
:100430000FB41CB5074B06AA7B446946009005988B
:1004400000F0F3FB0020694600F002FC1CBC5DF8E4
:1004500014FB0000150800002DE9F0474FF0000ADA
:1004600089460446C0F820A02046E1688847002855
:1004700076D0252806D0D4E901219047206A401C77
:100480002062F1E7E168204600258847C4F81CA0F7
:1004900006460027C4F818A02A2E09D0304603F0DB
:1004A000B6FE38B304EB8708303EC8F8186019E090
:1004B00059F8041B204604EB87029161E1688847E4
:1004C000012F064618D1E069002820DA25F0200522
:1004D0001DE0D8F8180000EB800006EB4000303833
:1004E000C8F818002046E1688847064603F08FFEEA
:1004F0000028EED1012F0AD02E2E08D12046E16827
:1005000088477F1C0646022F45F02005C4DBA06902
:10051000002803DA404245F00105A061E80701D058
:1005200025F01005B6B1A6F14100192802D82036F1
:1005300045F400654A463146204625604D46FFF7A2
:100540005DFE58B1012806D0ED1D25F0070000F131
:10055000080989E704E005F1040985E730468AE7E0
:10056000206ABDE8F08770B5064600F0EDF8046833
:10057000054630460A22002100F0C2FB2C6070BD07
:1005800040EA0103024630B59B0710D14FF0013419
:1005900000E008C208C91D1B9D4315EAC41FF8D01E
:1005A00013F0FF0102F8011B0DD01B0AF8E711F848
:1005B000013B002B02F8013B05D011F8013B002B59
:1005C00002F8013BF3D130BD10B5431C02E010F836
:1005D000011B71B18107FAD14FF0013202C88C1AA8
:1005E0008C4314EAC211F9D0C01A0A0603D0C01E07
:1005F00010BDC01A10BD0A0401D0801E10BD090232
:10060000FCD0401E10BD421E12F8013F002BFBD152
:1006100011F8013B002B02F8013BF9D17047032A86
:1006200040F2308010F0030C00F0158011F8013B0F
:10063000BCF1020F624498BF11F801CB00F8013BF6
:1006400038BF11F8013BA2F1040298BF00F801CBBA
:1006500038BF00F8013B11F0030300F08983083A2A
:10066000C0F0088051F8043B083A51F804CBA0E8E8
:100670000810F5E7121D5CBF51F8043B40F8043B3D
:10068000AFF30080D20724BF11F8013B11F801CB72
:1006900048BF11F8012B24BF00F8013B00F801CB43
:1006A00048BF00F8012B70474FF000020429C0F04A
:1006B000128010F0030C00F01B80CCF1040CBCF194
:1006C000020F18BF00F8012BA8BF20F8022BA1EBE6
:1006D0000C0100F00DB85FEAC17C24BF00F8012BCB
:1006E00000F8012B48BF00F8012B70474FF00002C3
:1006F00000B5134694469646203922BFA0E80C5018
:10070000A0E80C50B1F12001BFF4F7AF090728BFF2
:10071000A0E80C5048BF0CC05DF804EB890028BF6E
:1007200040F8042B08BF704748BF20F8022B11F097
:10073000804F18BF00F8012B704770477047704713
:100740000048704720010020004870471801002031
:10075000704770477047704738B504460A46002016
:100760006946AFF30080002808BF38BD02460099F3
:10077000204600F03FFB012038BD012000F0C4BC42
:10078000F8B5AFF30080054600200C46102000BFEE
:100790000646A819A0420DD9324669460020AFF39B
:1007A0000080070008BF00F0AFFC0098A04218BF0F
:1007B0000546C419FFF7C4FF05600746F01D20F089
:1007C00007004619284600F00AF8B44208BFF8BDF1
:1007D000A21B31463868BDE8F84000F00BBB002191
:1007E0000160C0E9011070471020704710B5FFF795
:1007F000ABFF006810BD10B50446FFF7A5FF04600D
:1008000010BD70472DE9FF4F0C461E464FF0FF37D5
:100810008BB0D2E90001DDF860800A908A46C1F30E
:100820000A5505B93D46002108464FF00000BAF1CF
:10083000000F00F4400005DA00EB80004FF44001A7
:1008400001EA50004FEA9059B9F1010F00DDB946B5
:100850000A9850EA4A000ED044F61050A5F2FF352F
:1008600045432F14B8F1000F1ED07542291E1EDD1E
:10087000C9F100021CE0B8F1010F4FF0000001D0F7
:10088000302103E0F24305E02154401CB042FBDB81
:1008900030460022002121540B99C1F80880C1E99B
:1008A00000200FB0BDE8F08FBD1B6D1CDEE74A468F
:1008B00000DA694206A800F0B5FB06AB93E8070032
:1008C00003AB83E8070050460A9901F0AEF98DE8C2
:1008D0000700A0F500501F3800900398002D0ADD96
:1008E00042F21F014A460844002303A903906846C8
:1008F00001F05AFC09E0A0F500504A461F380023D9
:1009000003A90390684601F079FC8DE80700000414
:10091000000C03D04FF0FF30410800E01046B8F162
:10092000000F03D00022009215461EE0751E05D46C
:1009300000F07AFA303262556D1EF9D5B3460122C5
:10094000084302D000227F1C04E02078302801D127
:1009500000227F1E002A099784D01DE0112D07DA9E
:1009600000F062FA303262556D1C50EA0102F5D196
:10097000084302D00098C8B10EE00021681E05E0CF
:10098000235C625C63542254401E491C8142F7DBA5
:10099000AB46A81B401E0990002004F80B000B98E2
:1009A000099AC0F80880C0E9002B7AE711264FF0B9
:1009B000000857E72DE9F04F88460446D21D22F083
:1009C000070191B0D1E90001CDE90A0102F0F5FD7E
:1009D00002460B98C00F01D02D2007E02068810748
:1009E00001D52B2002E0202101EAC000032A099052
:1009F00001D0072A05DB03464146204600F062FA93
:100A00000BE12078800601D5E06900E00620B8F10E
:100A1000650F814606D0B8F1660F18D0B8F1670FA0
:100A200070D131E00020B9F1110F009001DB1123EA
:100A300001E009F101030AAA01A90CA8FFF7E2FEEF
:100A4000DDE90C70002609F10105834647E001202D
:100A50004B4600904FF000470AAA01A90CA8FFF7E7
:100A6000D1FEDDE90DB00C995D46002610B909F103
:100A700001000D18B9EB050003D4C0F1FF3609F1F0
:100A80000105A5EB09002BE0B9F1010F01DA4FF0E8
:100A900001090020B9F1110F0090484601DD112332
:100AA00000E003460AAA01A90CA8FFF7ABFEDDE9A6
:100AB0000C704D4600268346207800070AD4AB45CB
:100AC00000DA5D4601A8012D04DD411911F8011C71
:100AD000302907D04F4502DA17F1040F04DA01205C
:100AE00082460FE06D1EEEE7002F02DCED1B3E4458
:100AF00003E0781CA84200DD7D1CB81B00F1010A50
:100B00004FF000472078000703D4AA4501DB4FF0DF
:100B1000FF3A0021B7F1004F0DF143088DF8431063
:100B200024D002202B23002F01DA7F422D230A211B
:100B3000021EA0F1010000DC5FB197FBF1FC97FB06
:100B4000F1F201FB1C7C17460CF1300C08F801CDCA
:100B5000EEE7A8F1010003702188090501D54521C0
:100B600000E06521A0F1010800F8011C09980FA917
:100B7000A1EB0807FF1D00B10120411901EBEA704C
:100B8000A1693844081A401EA0612078C00602D42A
:100B90002046AFF30080099828B1D4E9012190479D
:100BA000206A401C20622078C00622D52046AFF380
:100BB00000801EE0002E04DBB34502DD01A8805D4D
:100BC00000E03020D4E901219047206A401C2062D7
:100BD000761CAAF101005FEA000A0AD100F006F9CA
:100BE000C0680168405CD4E901219047206A401C3C
:100BF0002062281EA5F10105DCDC07E0D4E9012113
:100C000018F8010B9047206A401C2062381EA7F19B
:100C10000107F3DC2046AFF30080032011B041E66A
:100C200001694A1C02610878704700B58FB0CDE9B0
:100C300001310021059105497944CDE903101146A0
:100C40006846FFF709FC0FB000BD0000E5FFFFFF9D
:100C50000A6802F8010B0A60704700000FB4002315
:100C600000B589B00CA900910B99CB60214B7B4456
:100C70000693214B7B44079304236FF00042CDE998
:100C800001321E4A7A446B4608920246002004F064
:100C900089FA09B05DF814FB70B506464FF0FF30D5
:100CA00015460C46324686B00091CDE901016946F1
:100CB0000020049004A8FFF7D1FF024604982118F1
:100CC00025B108B1084600E02046286004980028B5
:100CD0000DD0002A02DD0098884208D03246081B59
:100CE00069460094CDE9010404A8FFF7B7FF06B0F8
:100CF00070BD0000D3020000EB0200002B020000D8
:100D00002DE9F04791460F4680460446002614F828
:100D1000015B2DB100F062F80068405DC007F6D1BC
:100D20002B2D02D02D2D18D0641E4A463946204660
:100D300000F028F927B13968A14201D1C7F8008035
:100D40004FF0020471050BD54042002803DDFFF788
:100D5000FBFC0460A007BDE8F08746F48066E4E78A
:100D60000028F8DAFFF7F0FC04606FF00040F2E7CB
:100D700010B5203AC0F00B80B1E81850203AA0E836
:100D80001850B1E81850A0E81850BFF4F5AF5FEA6A
:100D9000027C24BFB1E81850A0E8185044BF18C91D
:100DA00018C0BDE810405FEA827C24BF51F8043BC4
:100DB00040F8043B08BF7047D20728BF31F8023B18
:100DC00048BF11F8012B28BF20F8023B48BF00F8AC
:100DD000012B7047004870471801002010B500F043
:100DE00005F8001D10BD00BF3537000000487047F2
:100DF00038010020034640688C46002818BF88420E
:100E00003CBF03464068F8D318681844884207D0AE
:100E10000CF1030020F00700001D411A521A014690
:100E2000081D0A60FFF765BA30B5B0F10A024FEA53
:100E3000900E71F100034EEA817EB0EB0E0061EB83
:100E400091014FEA101E4EEA017E10EB0E0041EBBD
:100E500011114FEA102E4EEA016E10EB0E0041EB1D
:100E600011214FEA104E4EEA014E10EB0E0041EBFD
:100E70001141401841F100014FEAD00040EA4170B1
:100E80004FEAD10110EB80054FEA810444EA9074E7
:100E900044EB01046D1944EB0404521BA3414FF0D1
:100EA000000348BF0A3200D530BD401C41F10001AB
:100EB00030BD10B50446FFF791FF0068005D00F0FB
:100EC000010010BD2DE9F0411F46044603260168CC
:100ED000072A01F4006004DB08B116A505E016A599
:100EE00003E008B115A500E015A521F01000206071
:100EF000A069C01EA0610FB1401EA0612046AFF3E3
:100F000000804FB1D4E9012138469047206A401C47
:100F10002062C01C206206E0206AFAE7D4E90121C1
:100F200015F8010B9047761EF8D22046AFF30080EB
:100F3000BDE8F0814E414E006E616E00494E4600A4
:100F4000696E6600426842B1016811F8013B23B145
:100F5000521EC0E90012184670470121C160881E68
:100F6000704742685AB1C368016843B983688B42CD
:100F700005D0491E521CC0E90012002070474FF0F6
:100F8000FF3070472DE9F05F824615468B460027FB
:100F90000AF10104B9460078302801D09DB113E070
:100FA00014F8010B0127782803D0582801D045B147
:100FB0000AE00DB1102D07D1002714F8010B102500
:100FC00002E0082500E00A250026B0460EE005FBF9
:100FD000080005FB06F101271FFA80F801EB104617
:100FE000B6F5803F00D3B94614F8010B294600F04E
:100FF000B8F80028EBDABBF1000F05D00FB1641E82
:1010000000E05446CBF80040B9F1000F06D0FFF7DE
:101010009BFB02210160C81EBDE8F09F48EA064024
:10102000FAE700002DE9F047814616468AB03548B8
:1010300078440DC88DE80D0032487844801C03AC1C
:101040000DC884E80D0041F69B300844372190FB21
:10105000F1F290FBF1F5A5F1800501FB12041B3CB8
:1010600002D56442012000E00020DFF898A080460D
:101070000027FA44AAF1BE0A0EE0E0070AD0324681
:10108000684607EB470101230AEB810101F0B6F83E
:101090008DE8070064107F1C002CEED1194F7F44AF
:1010A000AE3F19E0E80715D007EB04100DF1180A60
:1010B00090E80E008AE80E00C068F04201D198194D
:1010C00008903246012306A903A801F097F803AB64
:1010D00083E807006D10641C002DE3D14FF001037D
:1010E00032466946B8F1000F03A802D001F05CF85F
:1010F00001E001F083F8C9E90001C9F808200AB04D
:10110000BDE8F0876043000010B500F0C3FABDE809
:10111000104000F0BABA70477546FFF75BFEAE4666
:1011200005006946534620F00700854618B020B5F3
:10113000FFF79EF8BDE820404FF000064FF0000793
:101140004FF000084FF0000B21F00701AC46ACE86F
:10115000C009ACE8C009ACE8C009ACE8C0098D46DC
:1011600070473A2800D2303820F02002412A01D3BB
:10117000A2F13700884201D34FF0FF3070470000E2
:101180002DE9FF4F06468BB00878FF2806D0491C92
:101190002D2805D000244FF0000908E000200CE0C5
:1011A0000124F8E709EB8903491C00EB430908789F
:1011B000FF28F7D114B1C9F100008146107800254D
:1011C0002C46AA4629462D2801D02B2804D1521C92
:1011D0002D2813D0002082468B461078FF280FD090
:1011E0004FF0000C0A21521CA5FB017804FB018181
:1011F00005FB0C11C5194BEB0104EEE70120EAE7F2
:10120000002108464FF00000BAF1000F02D000EBB9
:1012100080004008C0F38157012F01DD4FF0FF37F8
:101220000E9955EA040009EB01080BD04FF00209B2
:1012300018F5FA7F16DA4FEACA70002F706008DDE1
:10124000012007E04FEACA70C6E900B00FB0BDE860
:10125000F08F00203060FFF777FAC0F80090182177
:10126000084616E0B8F5FA7F18DD002F02DAF748D5
:10127000784401E0F6487844D0E90010C6E900104F
:1012800040EACA707060FFF75FFAC0F8009014215E
:1012900008460FB0BDE8F04F03F01FBF002108461D
:1012A0004FF00000B8F10001099002DAC7F1000226
:1012B00000E03A4601DAC8F1000106A8FFF7B2FEE5
:1012C00006AB93E8070003AB83E8070044F23E0057
:1012D0005BEA04010090584604D144F21E012C46FA
:1012E0005D460091210C0904014306D100992404B4
:1012F00044EA15442D041039009104F07F41014364
:1013000006D10099240244EA15642D02083900919F
:1013100004F07041014306D10099240144EA157498
:101320002D01091F009104F04041014306D10099AD
:10133000A40044EA9574AD00891E009104F00041B8
:10134000084304D100986D196441401E00904FF08D
:1013500001033A466846B8F1000FCDE9014503A9FB
:1013600002DD00F060FF01E000F033FFBAF1000F92
:1013700004460D4601D084F00044002108464FF099
:101380000000099940F2FF77484010F00C0F07D198
:1013900024F00040284303D0C4F30A50B84212D1CD
:1013A000FFF7D2F9C0F80090C4F30A50B8420AD14E
:1013B000A8487844D0E90010C6E9001004F00041C4
:1013C0000843706042E7C6E900543FE72DE9FF4F4C
:1013D0001F464FF0000A4FF0FF38454691B0D7E95D
:1013E0000146CDF83CA0FFF701FDC0680168405CF4
:1013F0001090B96912986D1C8847396A81468847F0
:101400000028F6D1B9F1FF3F0AD0002E24F4D064B1
:1014100011DDB9F12B0F08D0B9F12D0F0BD102E07E
:10142000404615B013E744F48064B96912986D1C06
:101430008847761E8146600504A901D52D2000E06D
:101440002B20002E01F1010B0DF130088DF810005A
:101450003FDDB9F1690F08D0B9F1490F05D0B9F1F5
:101460006E0F02D0B9F14E0F1CD13B4601A800957A
:1014700080E85002DDE912126FF0020003F096FEE0
:10148000C11CCED10EE0B96912986D1C8847814607
:101490001398761E44F4007405600F98401C002ECB
:1014A0000F9016DDB9F1300FEDD0B9F1780F02D001
:1014B000B9F1580F0DD10F9801280AD13B46CDE95B
:1014C0000054DDE91212001F029603F06DFEC11CEC
:1014D000A7D1109989453ED144F0800406E01399C4
:1014E000681CAAF1010A44F400740860B9696D1C13
:1014F0001298761E884730288146F0D02BE010994C
:10150000894505D1200603D4761E44F0800418E0F6
:10151000484602F07CFE08B3761E0DF123018B4590
:1015200044F4007408D2A9F130000BF8010B200636
:1015300007D5AAF1010003E0200602D40AF1010058
:101540008246A00502D51399681C0860B9691298F3
:101550006D1C88478146002ED1DC53E0002E51DD02
:10156000B9F1650F02D0B9F1450F4BD1A00549D5AE
:10157000B9696D1C1298761E24F440748847002EB9
:1015800081460CDD2B2804D0B9F12D0F07D144F48E
:101590008074B96912986D1C8847761E8146E005F3
:1015A00001D52D2100E02B2108F8011BCDF800808A
:1015B00021E0761E0DF13901884544F400740CD207
:1015C000A9F1300010F0FF0088F8000002D1009966
:1015D000884509D908F1010806E0E00501D51E4853
:1015E00001E042F20F708246B96912986D1C88477B
:1015F000814613980560002E04DD484602F007FE80
:101600000028D6D1F96912988847FF2053468BF8F5
:10161000000088F8000000200A900B9004AA0CA992
:101620000AA8FFF7ADFDA00502D46FF00100F8E6AF
:1016300014F0240F12D0E0071CD13868DDE90A123B
:10164000031D3B600068C0E9001213E06041000028
:101650005241000016400000F1D8FFFF0AA9684679
:1016600002F0C2FDE00705D13868009A011D39601B
:10167000006802602846D4E610B50446AFF3008047
:101680002046BDE81040FEF7DFBD002801D000F085
:1016900069B8704710B5012805D0002103A000F0FB
:1016A00067F8012010BD09A1F8E70000534947522F
:1016B000544D454D3A204F7574206F662068656122
:1016C00070206D656D6F7279000000003A204865EA
:1016D0006170206D656D6F727920636F72727570C5
:1016E000746564004FF0013C50F8042B51F8043B42
:1016F0009A4221D1A2EB0C03934313EACC1317D1E6
:1017000050F8042B51F8043B9A4215D1A2EB0C037C
:10171000934313EACC130BD150F8042B51F8043B3C
:101720009A4209D1A2EB0C03934313EACC13DBD00A
:101730004FF00000704700BFD01A01BAB1FA81F132
:1017400001F0180122FA01F0CB40C1F12001DBB217
:10175000C0B2C01A2CFA01F3D11A914311EAC31195
:10176000E6D1704701491820ABBEFEE72600020013
:1017700070B505460C460A2000E06D1C00F011F81B
:1017800035B128780028F8D102E0641C00F009F88F
:1017900014B120780028F8D1BDE870400A20AFF3DA
:1017A000008008B569468DF800000320ABBE08BD77
:1017B0002DE9FF4F1F464FF03C0987B04FF0004224
:1017C000DDE9141001F10108DDF858A002EA4050EB
:1017D0000390002005908346054604460490B969AD
:1017E000461E08988847AAF1010A0290BAF1000F34
:1017F0003BDD02982E2815D01021FFF7B2FC0028FF
:101800002EDB4FF0010B0599014317D0B9F1000F02
:101810000BDB4A46C11700F0F5F905430C43A9F16B
:10182000040905E0012004900BE008B145F0010532
:1018300001200590049820B9361D02E0049800B1FB
:10184000361FB969089808F101088847BBF1000FF5
:10185000AAF1010A0290C9D00999C1F80080C5E730
:101860000298702808D0502806D0F969089888474F
:10187000BBF1000F14D04FE0002002900120BBF11B
:10188000000F049009D0B969089808F10108884749
:10189000AAF10109B9F1000F07DCF9690898884736
:1018A0006FF001000BB0BDE8F08F2B2804D02D287D
:1018B0000CD14FF0FF300490B969089808F1010885
:1018C0008847A9F10109B9F1000FE6DD411CE4D018
:1018D0000A21FFF746FC0028DFDB029908F1010826
:1018E00001EB810100EB41000290B969089888473B
:1018F0000A21FFF736FC099AA9F10109B9F1000F95
:10190000C2F8008001DD0028E7DAF9690898884705
:101910000499029800FB016655EA040004D004F023
:101920004041090002D006E0039898E0A40044EA90
:101930009574AD00B61E04F00041080002D16D1987
:101940006441761E159810F0240F03D04FF00B0958
:101950005C4803E04FF028096FF07D008246564551
:1019600007DAAAEB06018944B9F1410F01DD4FF016
:10197000410901200021A9F1010200F043F90246CA
:1019800028400B462140084301D0012100E00021FE
:10199000501E029143F1FF3128402140084301D0FD
:1019A000012000E000200299834651EA0B014FD04C
:1019B000002108464FF00000039900F4400039B1BF
:1019C00000EB80004FF4400100EBD07001EA6000B2
:1019D0008015012802DD4FF0FF3000E013D0401CDD
:1019E00036D0029860B3BBF1000F0CD14A460120FB
:1019F000002100F007F928402140084301D00120D0
:101A000000E00020E0B101204A46002100F0FAF891
:101A1000034640190A4661412D1A8C4111D3B9F190
:101A2000400F09DD159810F0240F02D0AAF13406FA
:101A300003E0AAF1170600E0761C00254FF00044F1
:101A400006E05B1E42F1FF3220EA030521EA0204B0
:101A5000CAF10100B04206DA1B490398084301901D
:101A6000002000900EE0039AC4F3D321E80A0A4351
:101A7000164940EA44500A433146CDE9000268461F
:101A800002F0BBFB159810F0240F0BD01598C0077F
:101A900015D13868DDE90012031D3B600068C0E91C
:101AA00000120CE002A8694602F09EFB1598C007E0
:101AB00005D13868029A011D39600068026040460D
:101AC000F0E6000002FCFFFF0000F07F0000F03FA6
:101AD0002DE9FF4F92461D4685B04FF00041DDE9EC
:101AE000124BDDE914727F1E01EA4B50414940F070
:101AF000FF4940EA0108002122F020004928049112
:101B000002D04E2828D04CE03BA0012607C88DE823
:101B10000700A9690698641C88477F1E014606D401
:101B20001DF8060018B121F0200181420BD0E969AF
:101B300006988847032E34D0082E32D06FF001006B
:101B400009B0BDE8F08F761C032E01D0082EE0D13D
:101B5000601CCAF80000DCE7A9690698641C884785
:101B60007F1E2AD420F02000412826D1A96906989A
:101B7000641C88477F1E20D420F020004E281CD1F2
:101B8000A9690698641C88477F1E48F4002849F418
:101B90008009CAF8004001D4282806D0E9690698CF
:101BA00088475FEACB7012D022E0A9690698641CCE
:101BB00088477F1E01D4002803DAE9690698884720
:101BC000BCE72928F1D1641CCAF80040E9E71BF002
:101BD000240F07D028680499031D2B600068C0E912
:101BE000001805E02868021D2A600068C0F800900F
:101BF0002046A5E70000F07F494E46494E4954591A
:101C000000000000B2F120030AD5C2F1200301FA5E
:101C100002F120FA03F300FA02F041EA03017047EF
:101C200000FA03F14FF0000070475FEA400C08BF74
:101C300091F0000F4FEA8C234FEAC12243EA515141
:101C40004FEA1C5018BF00F5F0404FEA300018BFB3
:101C500041F000415FEA6C5C00F02980BCF1FF3F7D
:101C600008BF40F080407047130C06BF12044FF0CD
:101C7000100C4FF0000C130E04BF12020CF1080CF4
:101C8000130F04BF12010CF1040C930F04BF920058
:101C90000CF1020CD30F04BF52000CF1010C1146E1
:101CA0004FF00002A0F11F00A0EB0C00704711F0F4
:101CB000004F08BF704731F000413FF4D5AF0B0C27
:101CC00006BF09044FF0100C4FF0000C0B0E04BFC0
:101CD00009020CF1080C0B0F04BF09010CF1040CF4
:101CE0008B0F04BF89000CF1020CCB0F04BF49001D
:101CF0000CF1010CCCF12003A0EB0C0022FA03F351
:101D000002FA0CF241EA030100F10100704720F0F1
:101D10007F4C80EA030023F07F47ACEB070303F519
:101D20007C5300F0004003F1FF032DE980494FEAA6
:101D3000154B09B44FEA144325EA0B4E24EA034835
:101D40000FF2042606EB132749083E785FEA3202B9
:101D500003FB0667C7F5000707FB06F64FEA543793
:101D60004FEAD64606F1020607FB066CCCF1005C92
:101D70004FEA1C472CEA074C07FB06F40CFB06F560
:101D800004EB15464FEA961634BF00204FF0004092
:101D90004FEAD13706FB07FC4FEA1C4C0CFB0BF754
:101DA000D21B03FB0CF761EB07010CFB0EF7B0EB4A
:101DB000074072EB17420CFB08F734BFA2EB074257
:101DC000B2EB074261EB17414FEA0C444FEA91072F
:101DD00006FB07FC4FEA1C4C0CFB0BF7B0EBC740B3
:101DE00072EB573203FB0CF734BFA2EBC742B2EBE6
:101DF000C74261EB57310CFB0EF7B0EBC70072EB3B
:101E000057720CFB08F734BFA2EBC702B2EBC70254
:101E100061EB5771039F4FEA816141EA921104EB34
:101E2000CC044FEAD1374FEA826206FB07FC42EA54
:101E300090124FEA80604FEA1C4C0CFB0BF7D21B50
:101E400003FB0CF761EB07010CFB0EF7B0EB07404F
:101E500072EB17420CFB08F734BFA2EB0742B2EB60
:101E6000074261EB17414FEA8C554FEA910704EBAB
:101E70009C2406FB07FC4FEA1C4C0CFB0BF7B0EB59
:101E8000C74072EB573203FB0CF734BFA2EBC742DB
:101E9000B2EBC74261EB57310CFB0EF7B0EBC7005A
:101EA00072EB57720CFB08F734BFA2EBC702B2EB20
:101EB000C70261EB577115EB4C254FEA816141EA8E
:101EC00092114FEA82624FEAD13742EA901206FB42
:101ED00007FC44F100044FEA80604FEA1C4C0CFB05
:101EE0000BF7D21B03FB0CF761EB07010CFB0EF7A2
:101EF000B0EB074072EB17420CFB08F734BFA2EBC4
:101F00000742B2EB074261EB174115EB1C154FEA94
:101F1000813141EA92414FEA823242EA90424FEAED
:101F200080304FEA0C7644F1000448EA03434EEA5D
:101F30000B484FF0000EB2EB080C71EB030724BF07
:101F4000624639464EEB0E0E4FF0000B0018524120
:101F500049414BEB0B0BB2EB080C71EB03077BF128
:101F6000000B24BF624639464EEB0E0E4FF0000BBD
:101F70000018524149414BEB0B0BB2EB080C71EBD3
:101F800003077BF1000B24BF624639464EEB0E0E71
:101F900051EA020718BF46F0010616EB0E7655F11E
:101FA000000254F1000103D5BDE88901BDE80088B5
:101FB000BDE88901BDE80048B619524141EB010175
:101FC000A3F10103704780807F7E7D7C7B7A7978E6
:101FD000777676757473727171706F6E6E6D6C6CEE
:101FE0006B6A6A6968686766666564646363626190
:101FF0006160605F5F5E5E5D5D5C5C5B5B5A5A5911
:10200000595858575756565555555454535352527C
:102010005251515050504F4F4F4E4E4D4D4D4C4CD4
:102020004C4B4B4B4A4A4A4949494848484747471D
:10203000474646464545454444444443434343425A
:10204000424242414141000046EA0646A3F5705330
:102050004FEA164646EA42564FEAD22242EA415237
:1020600010B54FEAD121A3F1010300F02FF820F0C1
:10207000004000F1020C00F0004701EB0050114657
:10208000BCF5006F40EA070000D210BDBAF1000FA6
:102090000AD01CB503B44FF004004FF004014FF018
:1020A00000000FBCBDE810404FF00001BBF1010F74
:1020B000B9BF04484FF0FF310348002140EA070050
:1020C00010BD00BFFFFFEF7F0000F07F002B9C469C
:1020D00030D477002BD01CB54FEA370703B44FF04C
:1020E00010004FF01001BAF1000F06D0BCF1000F44
:1020F000DCBF40F0080040F008014FF000000FBCCA
:10210000BDE810400BF1010BBBF1010F08BF5FEA06
:10211000170722BF12F1010211F101014FF0004136
:1021200043F1000300F0004043EA00007047F9D398
:102130005708D0E746EA064613F1400F4FEA164625
:102140001FDD13F1200FDFBF16430A4600212033A5
:102150005B42BED0C3F1200746EA064602FA07F703
:102160004FEA164646EA0706C3F1200722FA03F2B1
:1021700001FA07F721FA03F14FF0000342EA0702E0
:10218000A7E746EA020646EA06464FEA164646EA48
:102190000106BCBF46EA0646360C4FF000034FF07E
:1021A00000024FF0000194E72DE9804C9A469346D7
:1021B00070B491E8380007C831EA400C48BF34EAEF
:1021C000430C03D5FFF7A3FDFFF780FFF0BCBDE88C
:1021D000008C2DE9804C9A46934670B491E8380003
:1021E00007C831EA400C48BF34EA430C03D5FFF777
:1021F0008EFDFFF729FFF0BCBDE8008C2DE9804C77
:102200009A46934670B491E8380007C810F0804FA2
:1022100008BF13F0804F03D100F01AF8FFF756FF04
:10222000F0BCBDE8008C2DE9804C9A46934670B412
:1022300091E8380007C810F0804F08BF13F0804FB6
:1022400003D100F005F8FFF7FFFEF0BCBDE8008CFD
:1022500020F07F4780EA030023F07F4C07EB0C035C
:10226000A3F57C5300F00040A3F1FE0392F0000FB1
:1022700000F0B38095F0000F00F077802DE9014960
:102280004FEA11404FEA144621EA004800FB06FCE1
:1022900024EA064708FB06F607FB08F800FB07F7E9
:1022A00018EB06484CEB164C4FEA124B18EB07485C
:1022B0004FEA15464CEB174022EA0B4E0BFB06FC8F
:1022C00025EA06470EFB06F607FB0EFE0BFB07F79B
:1022D0001EEB064E4CEB164C4FF000061EEB074E65
:1022E0004CEB174B18EB0B0840F1000018EB0E0BF2
:1022F00058EB000840F100008F1A4FF000013CBF7E
:10230000C943661B14BFB5EB040C00213CBFC94395
:10231000F61B4FEA17444EEA8E0E27EA04454FEAB1
:102320001C4704FB07622CEA074C05FB07F70CFB74
:1023300005F604FB0CFC16EB074642EB174216EBC6
:102340000C4642EB1C421BEB060658EB02024141D5
:1023500046EA9E0601D5BDE80189B619524141EB16
:102360000101A3F10103BDE801894FEA14454FEAD9
:10237000114724EA054621EA074C05FB07F406FB52
:1023800007F70CFB06F105FB0CFC11EB074144EBD6
:1023900017444FEA124711EB0C4144EB1C4422EA6C
:1023A000074C05FB07F206FB07F70CFB06F605FBDF
:1023B0000CFC16EB074642EB174216EB0C4642EBC1
:1023C0001C456A1854F1000148BF7047B6195241C4
:1023D00041EB0101A3F10103704795F0000F37D0E5
:1023E0004FEA11424FEA144721EA024624EA074C19
:1023F00002FB07F106FB07F70CFB06F402FB0CFCE3
:1024000014EB074441EB17414FEA154714EB0C441A
:1024100041EB1C4125EA074C02FB07F506FB07F7D9
:102420000CFB06F602FB0CFC16EB074645EB1745CA
:1024300016EB0C4645EB1C42121951F1000148BF46
:102440007047B619524141EB0101A3F101037047F6
:102450004FEA14454FEA114724EA054621EA074CA2
:1024600005FB07F106FB07F70CFB06F24FF0000631
:1024700005FB0CFC12EB074241EB174112EB0C423F
:1024800051EB1C4148BF7047921841EB0101A3F189
:1024900001037047FEE7704772B6FEE72DE9F04191
:1024A0000446876D00F060F9064694F83500002573
:1024B000022806D08020606584F834500120BDE8F1
:1024C000F0812068016821F01601016020684169EF
:1024D00021F080014161206C08B9A06C20B1206816
:1024E000016821F0080101602068016821F0010104
:1024F00001600CE000F038F9801B052807D9202086
:102500006065032084F8350084F83450D7E72068EC
:102510000068C007EED194F85C103F208840B86096
:10252000012084F8350084F834500020C7E790F883
:102530003510022903D08021416501207047052113
:1025400080F835100068016821F001010160002069
:102550007047000070B5044600F006F90546601C9F
:1025600002D004480078044400F0FEF8401BA0426A
:10257000FAD370BD140000202DE9F84FDFF8BCA19C
:102580000022012503264FF00F090AF1040BAAF1DE
:10259000040E00BF0B6805FA02F42340A34270D179
:1025A0000F7907F00307012F01D0022F16D187689A
:1025B0004FEA420806FA08FC27EA0C07D1F80CC0DB
:1025C0000CFA08FC4CEA070CC0F808C04768A7439F
:1025D0000C79C4F3001494403C4344600C79E44308
:1025E000A4070AD0C4684FEA420C06FA0CF7BC43B1
:1025F0008F6807FA0CF72743C7600C7904F00304CF
:10260000022C12D1D40800EB840CDCF820405707D0
:10261000FF0E09FA07F824EA0804D1F8108008FA36
:1026200007F848EA0408CCF8208004684FEA420C16
:1026300006FA0CF7BC430F7907F0030707FA0CF70B
:10264000274307604C6814F4403F70D03C4C276827
:1026500047F480472760246822F0030704F480448D
:102660000094384C07EB040CDCF8084897074FEA55
:10267000177809FA08F7BC43334FB84202D1002754
:1026800024E054E0314FB84201D101271EE0304F21
:10269000B84201D1022719E02E4FB84201D10327D9
:1026A00014E02D4FB84201D104270FE02B4FB84260
:1026B00001D105270AE02A4FB84201D1062705E0DB
:1026C000284FB84201D1072700E0082707FA08F78A
:1026D0002743CCF80878DAF800405746D1F804C010
:1026E0009C435FEACC2C00D51C433C60DBF80040E7
:1026F0005F46D1F804C09C435FEA8C2C00D51C4394
:102700003C60DEF800407746D1F804C09C435FEAA5
:102710008C3C00D51C433C60084F083F3C68D1F816
:1027200004C09C435FEACC3C00D51C433C60521C77
:10273000102AFFF42FAFBDE8F88F0000083C0140DD
:1027400044380240003001400000024000040240D2
:1027500000080240000C0240001002400014024039
:1027600000180240001C02400148806870470000C9
:10277000140000200248816802781144816070478B
:10278000140000200B4810B5016841F4007101608D
:10279000016841F480610160016841F48071016069
:1027A000032000F06FF80F2000F006F800F024F886
:1027B000002010BD003C024070B50D4D04464FF4A2
:1027C0007A712878B1FBF0F00A490968B1FBF0F0A2
:1027D00000F00AFB48B9102C07D200222146501EF7
:1027E00000F030F800206C6070BD012070BD00006A
:1027F00014000020200000200A4808B5016841F4B8
:1028000080410160006800F4804000900548001F8E
:10281000016841F080510160006800F08050009034
:1028200008BD000044380240002809DB00F01F0208
:10283000012191404009800000F1E020C0F8001122
:1028400070470000F0B40E4B1B680C46C3F3022324
:10285000C3F10705042D00D90425191D072901D24C
:10286000002300E0DB1E012606FA05F1491E214087
:1028700099409E40761E16403143F0BC00F0B5BE34
:102880000CED00E0064900F0070208684FF6FF0370
:10289000184040EA0220034A1043086070470000D5
:1028A0000CED00E00000FA052DE9F0470E460500AA
:1028B00065D0DFF81481D8F80000F7B200F0070007
:1028C000B04207D288F80070D8F8000000F0070086
:1028D000B04254D128683D4C810712D5400703D53A
:1028E000206840F4E05020602878000703D5206875
:1028F00040F4604020602068A96820F0F0000843A0
:1029000020602878C0072DD0304968680839012830
:1029100012D0022813D0032811D009688907002992
:102920002DDA216821F0030101432160FFF71CFF2C
:10293000814641F2883A0EE009688903EFE70968A9
:102940008901ECE7FFF710FFA0EB0901514502D91F
:102950000320BDE8F0872068696800F00C00B0EB48
:10296000810FEFD1D8F80010404601F00701B142C5
:1029700007D90770006800F00700B04201D00120BD
:10298000E7E72878400705D52068E96820F4E0509B
:10299000084320602878000706D52068296920F4BC
:1029A000604040EAC100206000F038F82168084A21
:1029B000C1F30311515CC84006490860064800682D
:1029C000FFF7FAFE0020C4E7003C0240083802404E
:1029D000E0510008200000201800002004480549AC
:1029E00000680968044AC1F38221515CC8407047FD
:1029F0002000002008380240F05100080448054932
:102A000000680968044AC1F34231515CC84070470C
:102A10002000002008380240F0510008154810B589
:102A2000006810F00C02144813D04110042A0FD093
:102A3000082A0ED10F4C241F2268236802F03F029F
:102A40005B0207D52068C0F38810A0FB010106E0F7
:102A5000084610BD2168C1F38811A1FB00010023C5
:102A6000FDF76EFC2168C1F30141491C4900B0FB30
:102A7000F1F010BD083802400024F4002DE9F84FB1
:102A800004006ED02078DFF84C93C007A9F104054C
:102A90004AD009F104000168C1F38101012908D07D
:102AA0000068C0F3810002280AD1D9F80000400272
:102AB00006D52868800337D560680028E1D033E068
:102AC0006068B0F5803F10D0B0F5A02F286810D016
:102AD00020F480302860286820F480202860606816
:102AE000A8B1FFF741FE06460DE0286840F48030AB
:102AF000F4E740F480202860F7E700BFFFF734FEDA
:102B0000801B642873D828688003F7D50CE0FFF792
:102B10002BFE064605E000BFFFF726FE801B64285B
:102B2000F0D828688003F7D42078DFF8AC828007DB
:102B30004FF0000A3ED5A748001D016811F00C0FA8
:102B400008D00068C0F3810002280BD1D9F800003A
:102B5000400207D42868800716D5E068012800D114
:102B600012E033E1E068B8B10120C8F80000FFF7D7
:102B7000FBFD064605E000BFFFF7F6FD801B0228BF
:102B8000C0D828688007F7D52868216920F0F800A8
:102B900040EAC10028600DE0C8F800A0FFF7E4FD9E
:102BA000064604E0FFF7E0FD801B02281FD82868D6
:102BB0008007F7D42078000722D5864F87486169BF
:102BC000703771B101210160FFF7CEFD064604E0C8
:102BD000FFF7CAFD801B022809D838688007F7D59F
:102BE0000EE0C0F800A0FFF7BFFD064605E082E05A
:102BF000FFF7BAFD801B02287DD838688007F7D41C
:102C00002078400768D5DFF8CCB100270BF13C0BEA
:102C1000DBF80000C0000BD4DBF8001041F080515D
:102C2000CBF80010DBF80000012700F08050009086
:102C30006B4E3068C00510D4306840F4807030604E
:102C4000FFF792FD009005E0FFF78EFD0099401A16
:102C5000022850D83068C005F6D55E4EA0686C36A4
:102C600001280FD00528306810D020F00100306016
:102C7000306820F004003060A068B8B1FFF774FD40
:102C800000900FE0306840F00100F4E740F00400ED
:102C90003060F7E7FFF768FD0099411A41F288308C
:102CA000814266D830688007F4D50EE0FFF75CFDFE
:102CB000009007E0FFF758FD0099411A41F2883073
:102CC000814256D830688007F4D42FB1DBF8001069
:102CD00021F08051CBF80010A069C8B33D49091D0F
:102CE0000968C1F3810102294AD00228504607D061
:102CF000C8F8600000E03CE0FFF736FD04463BE02A
:102D00004746C8F86000FFF72FFD064605E000BF04
:102D1000FFF72AFD801B02282BD828688001F7D4F2
:102D2000D4E907010843A16A2E4A490802EB014190
:102D3000626A41EA8211084394F82C1040EA01616A
:102D4000C9F8001001203866FFF70EFD044606E0C2
:102D50003EE000BFFFF708FD001B022809D82868E5
:102D60008001F7D534E000BFFFF7FEFC001B02280E
:102D700002D90320BDE8F88F28688001F4D427E049
:102D80000128F7D0D9F80000E26900F480019142EF
:102D90001CD1226A00F03F01914217D147F6C07161
:102DA000626A0140B1EB821F10D1A26A4FF0FF337B
:102DB00000F4403103EB5202B1EB024F06D194F81C
:102DC0002C1000F07060B0EB016F01D00120D1E752
:102DD0000020CFE70438024000004742800E4742FF
:102DE000007000400000FFFF10B5401EB0F1807F72
:102DF00001D3012010BD4FF0E02460610F21601766
:102E000000F0F3FB0020A06107202061002010BD2E
:102E100070477047F8B5016804460868CA684B698E
:102E200010F00F0F4FF0000559D003F0010602F427
:102E30009077374365D0C10705D0D10503D5216C04
:102E400041F001012164410705D5D90703D0216C68
:102E500041F002012164810705D5D90703D0216C17
:102E600041F004012164010707D502F0200131433C
:102E700003D0216C41F008012164216C00293AD073
:102E8000800604D5900602D5204600F08AFA206814
:102E90004069216CC0F38010090700D460B320465C
:102EA00000F058FA20684069400621D520681430A7
:102EB00050E8001F21F0400140E80012002AF5D13F
:102EC000A06BA8B16C490165A06BFFF730FB00282F
:102ED00011D0A06B016D01B0BDE8F040084783063A
:102EE0000FD593060DD52046BDE8F84000F059BA3D
:102EF0002046FFF78EFFF8BD2046FFF78AFF2564C6
:102F0000F8BD266B2023012E79D1C60677D5D606CB
:102F100075D50868486800904869400640D5A16B9F
:102F2000086840680004000CEAD0A28D8242E7D90C
:102F3000E085C869B0F5807F2DD020680C3050E85E
:102F4000001F21F4807140E80012002AF5D12068AA
:102F5000143050E8001F21F0010140E80012002A5F
:102F6000F5D12068143050E8001F21F0400140E8FE
:102F70000012002AF5D184F83E30256320680C3019
:102F800050E8001F21F0100140E80012002AF5D19E
:102F9000A06BFFF783FAA08DE18D401A81B229E082
:102FA000A08DE18D401A81B2E08D0028A8D00029C3
:102FB000A6D020680C3050E8002F22F4907240E830
:102FC0000026002EF5D12068143050E8002F22F0A2
:102FD000010240E80026002EF5D184F83E3025633A
:102FE00020680C3050E8002F22F0100240E8002347
:102FF000002BF5D12046FFF70BFFF8BDFFE70506D4
:103000002BD5150629D594F83D002128F5D1A068C7
:10301000B0F5805F01D12069B0B1206A411C216206
:10302000216800784860E08C401E0004000CE084B9
:10303000E3D12068C16821F08001C1602068C168C7
:1030400041F04001C160D8E7206A0088C0F3080061
:103050004860206A801C2062E5E74006CDD5500616
:10306000CBD5CA68204622F04002CA6084F83D30C1
:1030700000F0D3F8C1E700004533000870B5040044
:1030800004D094F83D00002510B106E0012070BD89
:1030900084F83C50204600F023F8242084F83D00BA
:1030A0002068C16821F40051C160204600F0DAF9BF
:1030B0002068016921F4904101612068416921F093
:1030C0002A0141612068C16841F40051C160256452
:1030D000202084F83D0084F83E00002070BD0000F0
:1030E00010B586B0044614216846FDF7FFFA17496B
:1030F0002068884228D116480021026842F0100258
:103100000260006800F01000059011481438026851
:1031100042F002020260006800F002000590C02048
:1031200000900220CDE901010320039007200490C4
:1031300069460848FFF720FA002211462520FFF7CC
:1031400081FB2520FFF770FB06B010BD0010014089
:10315000443802400004024090F83E30202B0ED14B
:1031600059B152B190F83C30012B08D0012380F8BE
:103170003C300023036300F0FBB9012070470220BC
:103180007047000010B5134C2168814220D11248CD
:10319000214600784A790A280DD00D280BD0891DC8
:1031A00050546079401C60712068BDE810400122D5
:1031B0000949FFF7D1BF0748A11D3730FDF72FFAA6
:1031C0006179A01DFDF770FA012020710020EAE767
:1031D00010BD0000600000200000002090F83D308D
:1031E000202B18D1A9B1A2B190F83C30012B12D0FC
:1031F00001628284C28400210164212280F83D2082
:1032000080F83C100068C16841F08001C160002076
:10321000704701207047022070477047FEE70000AA
:103220000D4808B5016841F080010160016801F0B6
:1032300080010091016841F001010160016801F025
:1032400001010091016841F002010160006800F095
:103250000200009008BD0000303802400C4810B554
:103260000A4901604FF4E1314160002181600C2284
:10327000C160C0E904128161C161FFF7FFFE00284F
:1032800003D0BDE81040FFF707B910BD00100140A2
:10329000D4000020FEE7FEE770477047FFF76ABAE8
:1032A00030B593B030216846FDF720FA14210CA800
:1032B000FDF71CFA1D480025016841F080510160AE
:1032C000006800F0805011901948016841F4804175
:1032D00001600068022400F48040119001200090F9
:1032E000000401908001CDE9064008AA0420A8212D
:1032F00082E813000B906846FFF7C0FB08B172B676
:10330000FEE70CA90F2081E831004FF4A0500F9088
:103310004FF48050109005210CA8FFF7C5FA002843
:1033200001D072B6FEE713B030BD00004038024055
:10333000007000400248016841F47001016070476C
:1033400088ED00E010B5806B0021C185C184FFF7D6
:1033500060FD10BD01680C3151E8002F22F490721D
:1033600041E80023002BF5D10168143151E8002F0A
:1033700022F0010241E80023002BF5D1016B012965
:1033800009D101680C3151E8002F22F0100241E808
:103390000023002BF5D1202180F83E10002101638D
:1033A000704708B590F83E10222901D0022008BDD0
:1033B00082684FF480539A4201D1016921B1816A38
:1033C0009A421BD04AB10AE00268816A5268C2F38D
:1033D00008020A80816A891C08E0026972B10268E9
:1033E000526802F07F020A70816A491C8162C18DB5
:1033F000491E0904090CC18503D019E0026852680E
:10340000F1E70168CA6822F02002CA600168CA6850
:1034100022F48072CA6001684A6922F001024A619E
:10342000202180F83E10016B012903D0FFF7AAFE8E
:10343000002008BD0021016301680C3151E8002F14
:1034400022F0100241E80023002BF5D101680A6840
:10345000D20602D50A6849680091818DFFF7D8FC31
:10346000E6E7000070B5044600680169E26821F4EF
:103470004051114301612169A068E2690843616913
:10348000114308432168CA6849F20C639A43024316
:10349000CA6020684169A26921F440711143416109
:1034A00031492068884202D03049884202D1FFF772
:1034B000A5FA01E0FFF792FAE269002319216425D9
:1034C0003226B2F5004F626828D0A0FB0101930FAD
:1034D0009200FCF735FF0146B0FBF5F06FF01802E3
:1034E000504301EB800006EB0010B0FBF5F000F05C
:1034F000F002B1FBF5F002EB0012B1FBF5F06FF05A
:103500001803584301EB800006EB0010B0FBF5F008
:1035100000F00F0021681044886070BDA0FB01011D
:1035200092185B41FCF70CFF0146B0FBF5F002017D
:10353000B1FBF5F06FF01803584301EB800006EB88
:10354000C000B0FBF5F000F0F80002EB4002B1FB68
:10355000F5F0584301EB800006EBC000B0FBF5F03E
:1035600000F00700D6E70000001001400014014001
:1035700081628285C28500210164222280F83E207A
:1035800080F83C10016921B10168CA6842F4807278
:10359000CA6001684A6942F001024A610068C16874
:1035A00041F02001C1600020704700000148FFF792
:1035B00031BC0000D4000020FEE703B401984100B4
:1035C000009850EAC12018BF04204A0D18BF40F0EF
:1035D000010040F2FF72B2EB515F08BF40F0020001
:1035E000012808BF052002B070470907090E00280E
:1035F00004DB00F1E02080F80014704700F00F00B9
:1036000000F1E02080F8141D704700000000000069
:1036100030B52DED048B81B0B0EE408AF0EE608ABB
:103620006A4651EC180B00F007FE00989FED329BA4
:103630007E300090002821DC53EC192B51EC180B44
:1036400001F0D4F91AD0002140F608004FF0000034
:10365000044651EC180B00F083FF08EE100A40F608
:10366000080004EA00014FF00000B5EEC08AF1EE58
:1036700010FA04BF0220FDF7BEF82DE00098FF28E5
:1036800030DB002108464FF0000000F4400553EC09
:10369000192B51EC180B01F079FB8CBF002401248D
:1036A0000220FDF7A8F89FED168A4DB1002C0CBF43
:1036B0004FF400004FF48000A84218BF9FED118A1C
:1036C000042108464FF00000002C01BFB1EE480A6B
:1036D00001B0BDEC048B30BDB0EE480A01B0BDECCA
:1036E000048B30BD51EC180B00F03AFF01B000EE36
:1036F000100ABDEC048B30BD00000000000000008B
:103700000000807FFFFF7F7F30B583B00446FDF768
:103710006DF89FED090B05468DED000B002221464B
:103720006846FDF7B9FA2846FDF765F89DED000BF0
:1037300003B030BD000000000000000000000000E9
:1037400010B52F499FED2C1B2DED020B84B0059871
:1037500020F000408842D8BF9DED040B2DDD2949A3
:10376000884209D1049840B94FF00100FDF743F8B1
:1037700000F00AFD06B010BD05DB9DED040B00F066
:10378000F7FC06B010BD68469DED040B00F008F98B
:1037900010F0030004BF9DED021B9DED000B0CD04B
:1037A00001280ED09DED021B9DED000B022817D0C5
:1037B000012000F045FC06B010BD00F00DFB06B086
:1037C00010BD9DED021B9DED000B012000F038FCAB
:1037D00051EC100B00F0B8FE06B041EC100B10BD20
:1037E00000F0FAFA51EC100B00F0AEFE06B041EC1E
:1037F000100B10BD000000000000000000000000E1
:10380000FB21E93F0000F07F30B540F2FF742DED61
:10381000048BF0EE608A18EE901A85B0B0EE408A04
:103820009FED2B9B05468DED008B34EA115147D05F
:1038300053EC192B51EC180B01F0D8F840D02A4664
:1038400051EC180B01F080FC41EC180B18EE900ABB
:103850008DED008B34EA10501CD053EC192B51EC39
:10386000180B01F0C3F82BD10220FCF7C4FF00F0C5
:10387000ABFC10EE901A18EE900A8DED020B8DED58
:10388000008B61F31E0003909DED020B05B0BDECB3
:10389000048B30BD0220FCF7AEFF00F085FC10EE7B
:1038A000901A18EE900A8DED020B8DED008B61F3EE
:1038B0001E0003909DED020B05B0BDEC048B30BDE6
:1038C00005B0B0EE480AF0EE680ABDEC048B30BDDE
:1038D000000000000000000010B52F499FED2C1BD8
:1038E0002DED020B84B0059820F000408842DCBF2B
:1038F00000209DED040B32DD2849884209D104984F
:1039000040B94FF00100FCF776FF00F03DFC06B037
:1039100010BD05DB9DED040B00F02AFC06B010BDC8
:1039200068469DED040B00F03BF810F0030011D049
:10393000012818D09DED021B9DED000B02281AD026
:1039400000F04AFA51EC100B00F0FEFD06B041EC1D
:10395000100B10BD9DED021B9DED000B012000F032
:103960006FFB06B010BD9DED021B9DED000B00F03E
:1039700033FA06B010BD012000F062FB51EC100BD1
:1039800000F0E2FD06B041EC100B10BD000000009D
:103990000000000000000000FB21E93F0000F07F74
:1039A0002DE9F14F04462DED020B2DED088B8AB069
:1039B0009FEDE70B80ED020B139EE74826F00045D4
:1039C00085420ADC9DED120B002084ED000B0AB04D
:1039D000BDEC088B03B0BDE8F08FE0489FEDE0AB95
:1039E0009FEDE1BBA84247DDE14F9FEDE39B9FEDDB
:1039F000E48B9DED120B53EC1A2B51EC100B002EA7
:103A00001CDD01F005FA41EC100BBD4208D053EC6F
:103A10001B2B51EC100B01F0FBF9C4E900010BE08A
:103A200053EC192B51EC100B01F0F2F953EC182B5D
:103A300001F0EEF9C4E900010120C8E700F0C2FD81
:103A400041EC100BBD4208D053EC1B2B51EC100B7A
:103A500000F0B8FDC4E900010BE053EC192B51EC68
:103A6000100B00F0AFFD53EC182B00F0ABFDC4E9D8
:103A700000014FF0FF30AAE7C348A84279DB9DED73
:103A8000120B51EC100B00F0C9FB41EC180B9FED31
:103A9000C00B53EC102B01F07BF89FEDBF1B53ECD8
:103AA000112B00F08FFD00F0DDFF074601F009F853
:103AB00041EC190B53EC1A2B01F06AF853EC182B5C
:103AC00001F09AF941EC180B53EC1B2B51EC190B3C
:103AD00001F05EF8DFF8C8A241EC100B4FEA155870
:103AE0000125FA4453EC102B51EC180B01F090F91E
:103AF000032DC4E900013DD0C1F30A5005EB451187
:103B0000A8EB00001139814234DA0AEB051BB0EE54
:103B100048AA9BED000BF0EE68AA53EC102B51EC79
:103B2000190B01F035F841EC1B0B51EC1A0B53EC5F
:103B30001B2B01F06DF941EC180B51EC1A0B53ECF7
:103B4000182B01F065F953EC1B2B01F061F99BED8B
:103B5000020B41EC1A0B53EC102B51EC190B01F03A
:103B600017F853EC1A2B01F053F941EC100B6D1CB4
:103B7000B8E70EE0002EA8BF3846BFF628AF94ED98
:103B8000000B51EC100B00F0DFFCC4E9000178429F
:103B90001DE7C6F3130040F4801EC6F30A50A0F2DE
:103BA000F530471100F01F05C5F12000DDF848B0E1
:103BB00008900020069007900520EC467949002DDA
:103BC00007EB0002794408BF51F8221009D051F8E0
:103BD000223001EB8201AB404A68089922FA01F1D8
:103BE0001943A1FB0E26A1FB0B131A449A4234BFC2
:103BF0000123002303EB06080CEB8003D3E901A6A5
:103C00000E448E4234BF0121002192448A4411B1F6
:103C1000924502D903E0924501D2012100E0002142
:103C2000C3E901A641444CF82010011EA0F1010097
:103C3000C4DC029800F10050850F0298DDE90367AB
:103C40008000DDF8148000F03CFF41EC1A0B304698
:103C500000F04EFF9FED541B53EC112B00F098FF2A
:103C600041EC1B0B384600F043FF9FED511B53EC1A
:103C7000112B00F08DFF41EC180B404600F038FF8F
:103C80009FED4D1B53EC112B00F082FF41EC190B03
:103C900051EC180B53EC192B00F094FC53EC1B2B3C
:103CA00000F090FC53EC1A2B00F08CFCCDE90801DD
:103CB000002008909DED080B53EC1A2B51EC100BD3
:103CC00001F0A6F853EC1B2B01F0A2F853EC182BD3
:103CD00001F09EF853EC192B01F08EF89FED381B84
:103CE00053EC112B00F054FF9FED370B41EC180BF8
:103CF00053EC102B9DED080B51EC100B00F048FF1E
:103D000053EC182B00F05EFC9FED310B41EC180BCF
:103D100053EC102B9DED080B51EC100B00F038FF0D
:103D200053EC182B00F04EFC41EC100B139810F0E4
:103D3000004F06D06D4251EC100B00F005FC41EC39
:103D4000100B284684ED000B41E600000000000047
:103D50000000000000000000FB21E93F7CD9024088
:103D600000004054FB21F93F3163621A61B4D03D39
:103D7000FB21F93F000000000000601A61B4D03D53
:103D80007370032E8A19A33BFB2139410000000008
:103D900083C8C96D305FE43F000000000000E03FD1
:103DA0004217000090160000000000000000103EC6
:103DB000000000000000103C000000000000103A6D
:103DC000182D4454FB21F93D3326A611460B113C16
:103DD00000000054FB21F93D10B52DED040B2DED35
:103DE000088B82B0B0EE419AF0EE619A0B9820F009
:103DF00000449FED4BABB4F1795F11DA9DED0A0BF6
:103E000051EC100B00F02EFE002801BFB0EE4A0A64
:103E1000F0EE6A0A02B0BDEC088B04BF04B010BD1E
:103E20009DED0A0B53EC102B51EC100B00F0B0FE83
:103E300041EC180B3C480621B0EE480AF0EE680A47
:103E4000784400F081F853EC182B51EC100B00F083
:103E50009FFE9DED0A0B41EC1B0B53EC192B51EC13
:103E6000100B00F095FE41EC190B53EC1B2B51ECA1
:103E7000180B00F08DFE53EC192B00F0C9FF9FEDDD
:103E80002C0B41EC190B53EC102B51EC180B00F0E0
:103E90007FFE41EC100B2848844210DA53EC192BBA
:103EA00051EC100B00F0B4FF53EC1A2B00F0A4FF00
:103EB00041EC100B02B0BDEC088B04B010BD1F48E4
:103EC000A042BCBF9FED1E1B8DED001B06DBA4F5C1
:103ED00000100190002000909DED001B51EC100B94
:103EE00053EC112B00F094FF9DED000B41EC180BEF
:103EF00053EC102B51EC1A0B00F08AFF41EC1A0B1B
:103F000053EC192B51EC180B00F082FF53EC1A2BD9
:103F100000F072FF41EC100BCCE700000000000045
:103F2000000000000000F03FB4130000000000009B
:103F3000000000000000E03F3333D33F0000E93FC2
:103F4000000000000000D23F70B504462DED028B4A
:103F50004D1E00EBC500B0EE408AF0EE608A90ED99
:103F6000000B35F0060017D053EC182B51EC100B5A
:103F700000F00EFE41EC100B6D1E04EBC50090ED41
:103F8000001B51EC100B53EC112B00F01BFB41EC10
:103F9000100B35F00600E7D1022D36D0042D1CD0D1
:103FA000062D1CBFBDEC028B70BD53EC182B51ECE1
:103FB000100B00F0EDFD94ED0A1B53EC112B00F0FB
:103FC00001FB53EC182B00F0E3FD94ED081B53ECC0
:103FD000112B00F0F7FA41EC100B53EC182B51ECBD
:103FE000100B00F0D5FD94ED061B53EC112B00F0E7
:103FF000E9FA53EC182B00F0CBFD94ED040B53ECD5
:10400000102B00F0DFFA41EC100B53EC182B51ECA5
:10401000100B00F0BDFD94ED021B53EC112B00F0D2
:10402000D1FA53EC182B00F0B3FD94ED001B53ECC8
:10403000112B00F0C7FABDEC028B41EC100B70BDE8
:1040400031B504462DED040B2DED0A8BB0EE41BACF
:10405000F0EE61BA0B989DED0A0B20F00040B0F134
:10406000795F0DDA51EC100BFFF7A7FA042808BFAF
:1040700000F0AAF89DED0A0BBDEC0A8B05B030BD2F
:1040800053EC102B51EC100B00F082FD41EC180B9F
:104090009DED0A0B53EC182B51EC100B00F078FD42
:1040A00041EC190B2C48B0EE480AF0EE680A0521E5
:1040B0007844FFF749FF9FED2ACBB0EE40AAF0EE1F
:1040C00060AA9CB353EC1C2B51EC190B00F060FD63
:1040D00041EC1C0B53EC1A2B51EC190B00F058FD62
:1040E0009FED210B41EC190B53EC102B51EC1B0BEA
:1040F00000F04EFD53EC192B00F08AFE53EC182B08
:1041000000F046FD53EC1B2B00F082FE53EC1C2B01
:1041100000F07EFE9DED0A1B53EC112B00F06CFEAF
:10412000BDEC0A8B05B041EC100B30BDFFE753EC42
:104130001A2B51EC180B00F02BFD53EC1C2B00F04C
:1041400041FA53EC192B00F023FD9DED0A1B53ECB3
:10415000112B00F037FAE3E73C12000000000000EA
:10416000495555555555C5BF000000000000E03FBA
:1041700010B553EC102B51EC100B00F023FA41EC6E
:10418000100B10BD000000009FED050B10B553ECA7
:10419000102B51EC100B00F0D1FA41EC100B10BDBC
:1041A00000000000000000009FED050B10B553EC6F
:1041B000102B51EC100B00F0EBFC41EC100B10BD80
:1041C00000000000000000709FED050B10B553ECDF
:1041D000102B51EC100B00F0DBFC41EC100B10BD70
:1041E000000000000000001010B5044691ED000B27
:1041F000FFF70EFA84ED000A10BD10B5044690EDED
:10420000000B0846FFF700FB84ED000B10BD3038B3
:104210000A2801D2012070470020704782B0CDE902
:10422000000121F0004001909DED000B02B051EC27
:10423000100B70470000000010B582B01446CDE9A5
:1042400000010023009A2360194B21F0004098429E
:104250002ADA024328D0B0F5801FA8BF226810DAFE
:104260009FED150B53EC102B9DED000B51EC100B3B
:1042700000F08EFCCDE900016FF0350221F0004026
:1042800022600F4B6FF31E5103EB2050104420604F
:1042900041F0FF5040F0005001909DED000B00BF39
:1042A00002B051EC100B10BD9DED000BF8E70000C3
:1042B0000000F07F000000000000000000005043FC
:1042C00002FCFFFF2DED048B82B09FED339AB0EE20
:1042D000498AFEF757FAFEF7E3FFFEF7A1FFFEF764
:1042E000BDFF2E4800F0B0F82E4F2D4EDFED2E9A78
:1042F0002E4DA7F1080400BF94ED010A38EE008AA4
:1043000018EE100AB04201DBB0EE498A00F096F8D0
:10431000B0B1684600F04CF8DDE90001C4E90201E3
:1043200097F90000012802D0022805D008E097ED97
:10433000010A84ED000A03E097ED010A84ED010A09
:1043400068EE298A18EE900A00F04CFE41EC100B42
:10435000FFF7C2FA51EC100B00F002F9286018EEDA
:10436000900A00F03FFE41EC100BFFF7E9F951EC29
:10437000100B00F0F5F8686085ED029A03210B48F8
:1043800000F070F894ED000ABDEEC00A10EE100ABD
:10439000FEF7E0F8B0E7000000000000D4000020C5
:1043A000000048430C00002004AD003DC800002080
:1043B0002DE9F84F804620488346FCF705F9C4B242
:1043C000032C0AD2FF2060F30705BFEE000AC8F8ED
:1043D000005088ED010ABDE8F88F174E4FF0000934
:1043E000373ECDF8009016F8370F8DF80000707842
:1043F0008DF801006846FCF7B6F860F30705A01ECB
:10440000FBF748FF0C498246891CFCF7B9F8504677
:10441000FFF77AF951EC100B00F0A2F8074606F806
:10442000339C21465846FCF73FF95046FBF761FFA5
:10443000C8E90057CFE70000970000200148007945
:1044400070470000600000200449002208604A71A3
:104450000A7101220249FEF77FBE000060000020C1
:10446000000000202DE9F0410D46074631211B4890
:10447000FCF73CF9194800210C4640F8311F6E1E2C
:10448000416001811CE000BF57F8240000F0AAFD44
:1044900041EC100B114853EC102B11A13130FBF7FC
:1044A000C7FF0E490D483131FCF7ADF8B44201D1D8
:1044B0000DA100E00DA10948FCF7A5F8641CE4B2C9
:1044C000AC42E1D30548FCF77FF882B203480349C8
:1044D0003C300068BDE8F041FEF780BE24000020BB
:1044E000252E3266000000000D0A00002C0000009E
:1044F00010B500290AD00878002807D0054878446C
:10450000FDF7F0F8002801D0002010BD02487844E3
:1045100010BD0000DE0E0000D60E000010B5002910
:104520000AD00878002807D005487844FDF7DAF863
:10453000002801D0002010BD0248784410BD0000C2
:10454000CE0E0000C60E000081F00041704780F0E2
:104550000040704721F00041704720F00040704754
:1045600021F00042A2F16052B2F5801F01F0004339
:1045700028BFD2F17F6C0BD95FEA001C43EAC2026C
:1045800042EB507018BF704728BF20F00100704701
:10459000B2F5801FBCBF184670474FEA410C1CF5AE
:1045A000001F02D2084600F093BD70B500F09AFBE0
:1045B00000000089FFF7F6BF4FF00040A0F5800033
:1045C0007047000010B591EA030F48BF83F0004325
:1045D00000F12684841A71EB030C05D2121943EB07
:1045E0000C03001B61EB0C01DFF824E14FEA1154CE
:1045F000A4EB135C1EEA430F18BF9EEA445F73D01E
:1046000023EA0E03DCF1200E21EA045143F4801367
:1046100032D322FA0CFE10EB0E0023FA0CFE41EB13
:104620000E01CCF1200E03FA0EFE10EB0E0051F13C
:104630000001B1F5801FCCF1200E32D201EB045104
:1046400012FA0EF2BDE8104058BF7047401C38BF48
:104650005FEA420218BF7047002814BF20F0010033
:1046600041F100014FEA410313F5001F38BF7047C5
:10467000A1F1C04100F084BB012A43EB0302ACF17D
:10468000200CDCF11F0E32BF4FF0000E23FA0CF3AA
:1046900010EB030041EB0451B4EB115FD0D0A1EB60
:1046A000045101F5801149085FEA300001EB045123
:1046B0000ED350F1000038BF12FA0EFE08D1BDE84B
:1046C0001040C9E7401C38BF5FEA4202CAD1C3E7C5
:1046D000BDE810404FEA410313F5001F38BF704793
:1046E000A1F1C04100F04CBB9EEA445F08D011EA42
:1046F0005E0FBDE8104004BF01F00041002070478C
:10470000BDE8104070B500F0EDFA00BF64FBBE3E9E
:104710000000E0FF02494FF0000000F0E3BC00BFE2
:104720000000F87F491058BFC1F140415B1058BFED
:10473000C3F140438B42EFF3008070472DE9C04145
:1047400030B4DFF8A0C23CEA111418BF3CEA1314DD
:1047500000F0EC8081EA03051CEA111444EAD574E8
:1047600018BF1CEA131500F0C780A4EB05044FF036
:10477000004545EAC12145EAC32341EA505143EAD5
:10478000525304F17F74994204F500344FEAC0207B
:104790004FEAC22208BF904200F09C804FEA1365A6
:1047A0000FF24016765D4FEA134506FB05F7C7F199
:1047B000807706FB07F74FEAD737A7FB03687642F7
:1047C000C8F58038A7FB06CE38BFA8F1010807FB63
:1047D00008E64FF0000EA6FB028CE6FB03CEDCF1F0
:1047E000000CCEF1004E38BFAEF1010EA6FB0C5806
:1047F0004FF000074FF00005E6FB0E87A1FB08C64F
:10480000A0FB07CE16EB0E0645F10005E1FB0765A0
:1048100015F1E04E7EBFA4F580345FEA46066D4197
:1048200016F1800745F100054FEA17274FEA0666A3
:1048300047EA0567A6F1DE46B6F1805F4FEA152527
:104840001FD9384624F0010C05EBC471BCF1FE6F92
:1048500001EB0C1102D8F0BCBDE8008124425CBF22
:1048600001F5801E9EEAC47F02D4F0BCBDE8008141
:10487000244238D4F0BCA1F1C041BDE8004100F0B1
:104880007FBA4FEAD22242EA43524FEAD323A7FB30
:1048900002864FEAD02040EA415007FB03661EEA39
:1048A0000E0F4FEAD12105FB026658BFA6EB00565A
:1048B000B6EB00564FEA520E4EEAC37E18EB0E0ED0
:1048C00056EB530EBDD518EB02085E417F1C55F127
:1048D0000005B6E74FF480154FF000074FF00006D3
:1048E0004FF00008ADE7F0BC4FF0000001F1C0410F
:1048F00001F00041BDE8008111EA0C1F0CEA13151C
:1049000000D00CE013EA0C1F00F025804FF00000EF
:10491000F0BC81EA030101F00041BDE80081F0BC78
:10492000BDE8004181EA030100F02ABAF0BCBDE80D
:10493000004170B500F0D6F9097EFC3E00F007B8E2
:1049400081EA03014FF0000001F00041704781EA65
:10495000030100F015BAF0BCBDE800414FF00000C3
:1049600021497047FFFDFBF9F7F5F4F2F0EEEDEBAE
:10497000E9E8E6E4E3E1E0DEDDDBDAD8D7D5D4D35D
:10498000D1D0CFCDCCCBCAC8C7C6C5C4C2C1C0BFA9
:10499000BEBDBCBBBAB9B8B7B6B5B4B3B2B1B0AFAF
:1049A000AEADACABAAA9A8A8A7A6A5A4A3A3A2A193
:1049B000A09F9F9E9D9C9C9B9A999998979796954E
:1049C00095949393929191908F8F8E8E8D8C8C8BEA
:1049D0008B8A898988888787868585848483838272
:1049E000828181800000FF070000F87F51EA030CFC
:1049F00017D41CF5801F58BFBCF5801F00F106803E
:104A0000994218BF704708BF9042704707D711F509
:104A1000801F58BF13F5801F19D4994270478942EF
:104A200070471CF5801F08D5BCF5801FF7D58B4259
:104A300018BF704708BF824270474FF4001C1CEB40
:104A4000410F38BF1CEB430F01D28B42704770B54A
:104A500000F048F9922449004FF000514FF0805384
:104A6000FFF760BE4FEA41034FEA5353A3F580635B
:104A7000D3F11E03C8BFD3F1210C0CDD4FF000426F
:104A800042EAC12242EA505232FA03FC8CEAE17C4B
:104A9000ACEBE1707047102BC4BF0020704703F5EA
:104AA000787CBCF1FF3F04D06FF0004282EA210025
:104AB000704770B500F016F94992248000207047C5
:104AC000F2E710F0004248BF4042B0FA80F310FA1B
:104AD00003F10AD0C3F11D0303F580634FEA41508F
:104AE00002EB035202EBD12170474FF000007047F8
:104AF000B0FA80F310FA03F10AD0C3F11D0303F5F5
:104B000080634FEA41504FEA035202EBD1217047D4
:104B10004FF000007047000051EA030C17D41CF559
:104B2000801F58BFBCF5801F00F10680994218BF56
:104B3000704708BF9042704707D711F5801F58BFD4
:104B400013F5801F19D499427047894270471CF5AC
:104B5000801F08D5BCF5801FF7D58B4218BF704762
:104B600008BF824270474FF4001C1CEB410F38BF56
:104B70001CEB430F01D28B42704770B500F0B2F8C6
:104B8000922449004FF000514FF08053FFF7CABD07
:104B9000DFF848C170B51CEA111E1EBF1CEA1315D0
:104BA0009EEA0C0F95EA0C0F00F06F8081EA030477
:104BB00023EA4C134EEAD47E21EA4C1141F48011D1
:104BC00043F48013AE44A1FB024CA0FB0365AEF19D
:104BD0007F7E361955EB0C05A1FB034C4CF100030D
:104BE000A0FB021C16EB0C06654153F100030942C1
:104BF00018BF46F0010613F4007F0BD14FEA0331D2
:104C00004FEA0530340341EA155140EA16506FF07F
:104C100003020AE04FEAC3214FEAC520F40241EA49
:104C2000555140EA56506FF0020202EB2E4201EB62
:104C3000025585EACE710AD05FEA440C18BF24F011
:104C4000004450F1000041F1000120EAD47040F22C
:104C5000FE7C624500D270BDA84214BF4FF0804474
:104C60004FF04044002E08BF0024BEF1806FA8BF63
:104C7000A1F1C041BDE8704080F282804FF0000099
:104C800001F1C04101F0004170479EEA0C0F0CEAAF
:104C9000131518BF95EA0C0F06D04FF0000081EAFB
:104CA000030E0EF0004170BD00F01CF88900013EBB
:104CB00000F007B800F009B84FEA430C5FEA5C5C0B
:104CC00008D081EA030100F05BB84FEA410C5FEACB
:104CD0005C5CF6D14FF00000014970470000FF070F
:104CE0000000F87F0EF1020E2EF0030E5EF8046B4A
:104CF000364205D4012A43EB030515F5001F12D8EF
:104D0000012841EB010C1CF5001F0CD80ED14FEA15
:104D1000D17C15F5001F0CEB4C0C0CF1020C08BFFC
:104D20004CEBD37C04E04FF0080C01E04FEAD37C5D
:104D30000CEB4C0526FA05F606F00706B6F1040C56
:104D400006D20EEB860CBDE870404CF0010C6047BB
:104D5000DFE80CF0090B02024FF000414FF00000B9
:104D6000A1F5002170BD19461046012851EB010440
:104D700018BFD4F5001484BF002001F0004170BDBD
:104D80000808A0F500114FEA3101704753EA010C01
:104D900017D41CF5801F58BFBCF5801F00F106809A
:104DA0008B4218BF704708BF8242704707D713F580
:104DB000801F58BF11F5801F19D48B4270479B424A
:104DC00070471CF5801F08D5BCF5801FF7D59942A8
:104DD00018BF704708BF904270474FF4001C1CEB8F
:104DE000430F38BF1CEB410F01D2994270470FB4FB
:104DF0000CBC03BCFFF7C1BE91EA030F10B581F0F4
:104E000000413FF5E7AB83F0004300F009B8000034
:104E100010B591EA030F48BF83F000433FF5DAABCA
:104E2000841A71EB030C07D212198CF0004C43EB7F
:104E30000C03001B61EB0C01DFF8A4E14FEA1154F5
:104E4000A4EB135C1EEA430F18BF9EEA445F00F018
:104E5000B08023EA6E03524221EA0451C3EB6E0391
:104E600038BF5B1EDCF1200E25D322FA0CFE10EBBE
:104E70000E0043FA0CFE41EB0E01CCF1200E03FABA
:104E80000EFE10EB0E0051F10001CCF1200E29D4E2
:104E900012FA0EF201EB0451BDE8104058BF704702
:104EA000401C1CBFB2F1004F704700280CBF491CCA
:104EB00020F00100704712EB020E43EB030218BF13
:104EC0004FF0010E4EEA4202ACF1200CDCF11E0E56
:104ED00054D943FA0CFE10EB0E0051F1FF31CCF126
:104EE0001E0ED5D50EF1010E12FA0EFE404141EB19
:104EF000010101EB445C5FEA5C5C10D910EBDE70F1
:104F000001EB045138BFBEF1004FBDE8104018BF9F
:104F1000704700280CBF491C20F00100704730D2B8
:104F20004FEAD42C11F5001124F400641BD0B1FA1F
:104F300081F20B3AA41AA41ED2F12003914030FA58
:104F400003F31943904001EBCC71002C01EB0451A9
:104F5000BDE81040A8BF704701F1C0414FF000000C
:104F600001F000417047B0FA80F310FA03F100D16C
:104F700010BDE41A173C4805C90AE4E701EB0451E7
:104F800010BD491001EB0451BDE810404FEA30005C
:104F900002E04FF0000170474A0008BF0042F8D01D
:104FA000B2F5001F28BF704701F000414FF000002C
:104FB00070479EEA445F07D011EA5E0FBDE81040DB
:104FC00004BF002100207047BDE8104070B5FFF716
:104FD00089FE00BF40DFF63E83F000411046704777
:104FE0000000E0FF43004FEAD30C4FEA3C0C434083
:104FF0001FBF40070CF1605113F0FE4F70471CF0CB
:10500000006F03D100200CF0004170470CF000430A
:1050100043EA507010B540EACC0000F00EF800BF33
:10502000000000924FEA0001FFF7AABE4FF00041D6
:105030004FF00000A1F5002170470EF1020E2EF096
:10504000030E5EF8044B244204D44FEA4102B2F14D
:105050007F4F11D84FEA4003B3F17F4F0CD80ED1E8
:105060004FEAD07CB2F17F4F0CEB4C0C0CF1020CF0
:1050700008BF4CEBD17C04E04FF0080C01E04FEA94
:10508000D17C0CEB4C0324FA03F404F00704B4F1D4
:10509000040C06D20EEB840CBDE810404CF0010C61
:1050A0006047DFE80CF0070802024FF00040A0F56F
:1050B000800010BD0846420018BFD2F1807288BF40
:1050C00000F0004010BD4FF04070E1EE100A704754
:1050D000FF2141EAD050C00570474FF000007047F3
:1050E000FBF768BC0CF00F03092B08BF082000F089
:1050F0005F800A2B0BD0082B18BF704708BF1CF02D
:10510000400F0AD04FF000004FF0000170471CF034
:10511000400F18BF4FF0004070471CF0100F08D030
:1051200020F0704300F07F4242EAD3014FEA43701F
:10513000704700F0604021F07F4242EA000201F037
:105140007F4040EA727070474FF0FF0C4CF4E06C07
:105150001CEA11531CBF9CEA030C9445C2BFDA42FF
:1051600001EB02517047002B0DD0BCF1000F0FD0A6
:10517000002A01F00041A4BF41F0E04141F07F610D
:105180004FF00000704701F000414FF00000704701
:1051900050EA01334FF09B0C18BF4CF0806C7FF449
:1051A000B9AA7047FCF712B9FCF702BBFCF790BC38
:1051B0001CF4801F11D01CF4E02F03D06FEACC3117
:1051C000490070474FF04050EFF3008222F07042E8
:1051D00042EA000282F3008870474FF000007047F7
:1051E0000000000000000000010203040607080997
:1051F00000000000010203044C5555555555A53FCC
:105200007751C1166CC156BF9015CB19A001FA3E5B
:10521000AD529C804F7E92BEC4B1B4BD9EEE213E85
:10522000D43888BEE9FAA8BD00004054FB21F93FFC
:105230003163621A61B4D03D0000601A61B4D03DA0
:105240007370032E8A19A33B0000002E8A19A33B1A
:10525000C14920259A837B3900000000000000002E
:105260006E83F9A22915444ED15727FCC0DD34F5D1
:10527000999562DB4190433CAB6351FE61C5BBDE57
:105280003A6E24B7E0D24D42EA2E49061C92D1096B
:105290001CEB1DFE3EA729B1F53582E88444BB2EE8
:1052A00026709CE9417E5FB439D69139F439538335
:1052B0008B5F849C3B28F9BDFF97F81F0F9805DE94
:1052C0008B112FEF1F6D0A5ACF7E366DB709CB2792
:1052D000663F464F2DEA5F9EC7BA27757BF1E5EB27
:1052E000F739073DEA92528AB15FFB6B085D8D1F6B
:1052F000A6F810111111813FD561C119A0012ABF73
:105300007DFEB157E31DC73EEB9C2B8AE6E55ABEF6
:105310007CD5CF5A3AD9E53D02400000000000A0FC
:105320000000000005400000000000C80000000070
:105330000C4000000000409C0000000019400000EC
:105340000020BCBE0000000034400000BFC91B8E1E
:1053500000000004B5400000504BCFD06607E2CFFC
:10536000010000006C4100003E8251AADFEEA7342C
:1053700001000000D9420000DCB5A0E23A301F97DE
:10538000FFFFFFFFB4450000FD25A0C8E9A3C14F02
:10539000FFFFFFFFFF3F0000000000800000000053
:1053A000FF3F0000000000800000000008550008DA
:1053B0000000002024000000C40100082C55000853
:1053C0002400002054070000E00100080000000055
:1053D0000000F07FFFFFFFFFFFFFEF7F1C000000DA
:1053E00043000000F8FFFFFF0C0000000E0000006B
:1053F0000F0000002E00000010010000430000001C
:10540000F8FFFFFF004040404040404040404141E5
:105410004141414040404040404040404040404089
:105420004040404040050202020202020202020223
:105430000202020202202020202020202020200220
:1054400002020202020290909090909010101010B0
:10545000101010101010101010101010101010104C
:1054600002020202020288888888888808080808E0
:1054700008080808080808080808080808080808AC
:1054800002020202400000000000000000000000D4
:10549000000000000000000000000000000000000C
:1054A00000000000000000000000000000000000FC
:1054B00000000000000000000000000000000000EC
:1054C00000000000000000000000000000000000DC
:1054D00000000000000000000000000000000000CC
:1054E00000000000000000000000000000000000BC
:1054F00000000000000000000000000000000000AC
:105500000000000000000000000000000000C84291
:105510000000803F000000000000000001000000CB
:0C55200010000000000000000024F40057
:040000050800018965
:00000001FF
